:100000002DC0000040C0000039C0000037C0000013
:1000100035C0000033C0000031C000002FC0000018
:100020002DC000002BC0000029C0000027C0000028
:1000300025C0000023C0000021C000001FC0000038
:100040001DC000001BC0000019C0000017C0000048
:1000500015C0000013C0000011C0000011241FBE15
:10006000CFEFD8E0DEBFCDBF21E0A0E0B1E001C01E
:100070001D92A030B207E1F719D029C0C1CF8FEF90
:100080008093640008951F920F920FB60F9211246F
:100090008F939F9395B180E2892785B99F918F9126
:1000A0000F900FBE0F901F9018950895E8DFFDDFA9
:1000B000259A90E22FEF33ED80E3215030408040CD
:1000C000E1F700C0000085B1892785B9F3CFF89426
:0200D000FFCF60
:00000001FF
