:100000002DC000004BC0000039C0000037C0000008
:1000100035C0000033C0000031C000002FC0000018
:100020002DC000002BC0000029C0000027C0000028
:1000300025C0000023C0000021C000001FC0000038
:100040001DC000001BC0000019C0000017C0000048
:1000500015C0000013C0000011C0000011241FBE15
:10006000CFEFD8E0DEBFCDBF21E0A0E0B1E001C01E
:100070001D92A037B207E1F7F7D0FBC0C1CF8FEFD9
:100080008093640008955298259A5A9AE9E6F0E020
:10009000808181608083E89A789408951F920F92FE
:1000A0000FB60F9211242F933F934F935F936F934B
:1000B0007F938F939F93AF93BF93EF93FF93809121
:1000C0000001813059F018F0823079F012C07AD0F6
:1000D000809100018F5F809300010DC061D08091FD
:1000E00000018F5F8093000106C07ED01092000156
:1000F00002C010920001FF91EF91BF91AF919F91CB
:100100008F917F916F915F914F913F912F910F90C0
:100110000FBE0F901F901895EDE6F1E026E131E05B
:1001200088E78183808382833397E217F307C9F7D7
:100130006DE170E089E191E069C00895EDE6F1E0DC
:1001400086E191E01182108212823397E817F90755
:10015000C9F76DE170E089E191E058C00895229AF5
:10016000EDDFE1E0F1E086E98183808382838FEF38
:10017000848313821582878394E696831086928700
:1001800081871386158684871686108A9787818BC8
:10019000138A128A848B968B158A878BBDCF08951C
:1001A000EDE6F1E026E131E08FEF118280831282EB
:1001B0003397E217F307C9F76DE170E089E191E049
:1001C00025C00895EDE6F1E026E131E08FEF1182E0
:1001D000108282833397E217F307C9F76DE170E06D
:1001E00089E191E013C00895EDE6F1E026E131E008
:1001F0008FEF8183108212823397E217F307C9F7DA
:100200006DE170E089E191E001C008959B01220F4A
:10021000331F620F731F229A25B12B7F35B13460D3
:100220004FB7F89461157105B1F0FC01680F791FA3
:10023000919188E035B9000000C097FF25B9990F6A
:10024000000000C000C000C025B900C08A9591F729
:10025000E617F70769F74FBF8FEA94E00197F1F7C8
:1002600000C00000089508950ADFFDDF78DF0BDF8E
:06027000FFCFF894FFCF60
:00000001FF
