S01200004C656450726F6A6563742E7372656326
S11300002DC0000078C0000044C0000042C00000C1
S113001040C000003EC000003CC000003AC00000E8
S113002038C0000036C0000034C0000032C00000F8
S113003030C000002EC000002CC000002AC0000008
S113004028C0000026C0000024C000002FC000000B
S113005020C000001EC000001CC0000011241FBEF0
S1130060CFEFD8E0DEBFCDBF11E0A0E0B1E0E2E920
S1130070F2E002C005900D92AE30B107D9F721E04D
S1130080AEE0B1E001C01D92AE37B207E1F7FCD09B
S1130090FEC0B6CFECE7F0E0808181648083EAE7BC
S11300A0F0E080818E6E8083789408951F920F9281
S11300B00FB60F9211242F933F934F935F936F9337
S11300C07F938F939F93AF93BF93EF93FF9380E0BE
S11300D091E0CCD0FF91EF91BF91AF919F918F911F
S11300E07F916F915F914F913F912F910F900FBE30
S11300F00F901F9018951F920F920FB60F92112414
S11301002F933F934F935F936F937F938F939F931B
S1130110AF93BF93EF93FF9380910E01813059F019
S113012018F0823079F012C03CD080910E018F5FBC
S113013080930E010DC023D080910E018F5F8093B8
S11301400E0106C040D010920E0102C010920E01A2
S11301508FE39CE90197F1F700C00000FF91EF9154
S1130160BF91AF919F918F917F916F915F914F91CB
S11301703F912F910F900FBE0F901F901895EBE7B2
S1130180F1E024E231E08FEF118280831282339711
S1130190E217F307C9F76DE170E087E291E025C04B
S11301A00895EBE7F1E024E231E08FEF1182108251
S11301B082833397E217F307C9F76DE170E087E2B2
S11301C091E013C00895EBE7F1E024E231E08FEF12
S11301D08183108212823397E217F307C9F76DE126
S11301E070E087E291E001C008959B01220F331F64
S11301F0620F731F229A25B12B7F35B134604FB73C
S1130200F89461157105B1F0FC01680F791F9191A3
S113021088E035B9000000C097FF25B9990F0000A8
S113022000C000C000C025B900C08A9591F7E61748
S1130230F70769F74FBF8FEA94E00197F1F700C021
S1130240000008951092C50087E68093C40088E1F9
S11302508093C10086E08093C2000895E0ECF0E052
S1130260908195FFFDCF8093C6000895CF93DF93CF
S1130270EC018881882329F02196F0DF899181118E
S1130280FCCFDF91CF910895DDDF04DFFFCFF89439
S1050290FFCF9A
S11102924144435F494E544552525550540066
S9030000FC
